:100000000C9434000C9451000C9451000C94510049
:100010000C9451000C9451000C9451000C9451001C
:100020000C9451000C9451000C9451000C9451000C
:100030000C9451000C9460040C9451000C945100E9
:100040000C9453000C9451000C9451000C945100EA
:100050000C9451000C9488040C9451000C945100A1
:100060000C9451000C94510011241FBECFEFD4E02A
:10007000DEBFCDBF11E0A0E0B1E0EAECF2E102C0EA
:1000800005900D92A833B107D9F711E0A8E3B1E0CC
:1000900001C01D92AE3AB107E1F70E94BC050C9475
:1000A00063090C9400001F920F920FB60F92112457
:1000B000DF93CF93CDB7DEB7CF91DF910F900FBE17
:1000C0000F901F901895EF92FF920F931F93DF935D
:1000D000CF9300D0CDB7DEB780913A0190913B012C
:1000E00001E08936900730F088E691E090933B017B
:1000F00080933A01809138019091390113E080306A
:10010000910730F08FEF92E090933901809338019E
:1001100080913A0190913B01CC01A0E0B0E02FE644
:100120003AE140E050E0BC01CD010E940709DC014A
:10013000CB018093950190939601A0939701B09382
:1001400098018091950190919601A0919701B091AD
:10015000980128E631E040E050E0BC01CD010E946A
:100160003A09DA01C9018093950190939601A09311
:100170009701B09398018091950190919601A0917B
:100180009701B09198018156974090936A018093AE
:1001900069018091380190913901880F892F881F5A
:1001A000990B919589838981863010F085E0898348
:1001B0008981882F90E0880F991FFC01E050FF4F44
:1001C0008081918190939201809391018981882F00
:1001D00090E00196880F991FFC01E050FF4F80814D
:1001E000918190935A018093590120915901309146
:1001F0005A018091910190919201A901481B590BDC
:10020000CA0190936801809367018981882F90E0EB
:10021000880F991FFC01E25FFE4F808191819093CE
:100220009401809393018981882F90E00196880F33
:10023000991FFC01E25FFE4F8081918190936001E4
:1002400080935F0120915F01309160018091930163
:10025000909194017901E81AF90AC70190939001ED
:1002600080938F0120913801309139018091910163
:10027000909192018901081B190BC801CC01A0E0E3
:10028000B0E080937B0190937C01A0937D01B093BB
:100290007E0180918F0190919001CC01A0E0B0E0AF
:1002A00020917B0130917C0140917D0150917E0134
:1002B000BC01CD010E940709DC01CB0180937B01C9
:1002C00090937C01A0937D01B0937E01E0907B012F
:1002D000F0907C0100917D0110917E018091670179
:1002E000909168019C0140E050E0C801B7010E9474
:1002F0003A09DA01C90180937B0190937C01A093B4
:100300007D01B0937E0180919301909194019C01B5
:1003100040E050E080917B0190917C01A0917D01B3
:10032000B0917E01820F931FA41FB51F80937B01A4
:1003300090937C01A0937D01B0937E01809169012F
:1003400090916A019C0140E050E080917B01909186
:100350007C01A0917D01B0917E01820F931FA41FAB
:10036000B51F80937B0190937C01A0937D01B09396
:100370007E018981882F90E0880F991FFC01E25F40
:10038000FE4F8081918190935C0180935B01898114
:10039000882F90E00196880F991FFC01E25FFE4FC5
:1003A0008081918190936601809365012091650120
:1003B0003091660180915B0190915C01A901481B1D
:1003C000590BCA0190935E0180935D018981882F4A
:1003D00090E0880F991FFC01E45EFE4F80819181BF
:1003E00090939401809393018981882F90E00196E6
:1003F000880F991FFC01E45EFE4F808191819093EC
:10040000600180935F0120915F01309160018091D4
:100410009301909194017901E81AF90AC701909328
:10042000900180938F0120917B0130917C0140915C
:100430007D0150917E0180915B0190915C01CC0126
:10044000A0E0B0E079018A01E81AF90A0A0B1B0B57
:10045000D801C7018093610190936201A093630169
:10046000B093640180918F0190919001CC01A0E044
:10047000B0E020916101309162014091630150919F
:100480006401BC01CD010E940709DC01CB0180930E
:10049000610190936201A0936301B0936401E090C5
:1004A0006101F090620100916301109164018091FB
:1004B0005D0190915E019C0140E050E0C801B701F0
:1004C0000E943A09DA01C9018093610190936201A7
:1004D000A0936301B0936401809193019091940182
:1004E0009C0140E050E08091610190916201A091F7
:1004F0006301B0916401820F931FA41FB51F809305
:10050000610190936201A0936301B09364018091B3
:100510002C0190912D01009751F080912C01909128
:100520002D01019790932D0180932C0120C0809183
:100530005701909158019C0140E050E08091610189
:1005400090916201A0916301B0916401281739076D
:100550004A075B0760F48091610190916201A0916C
:100560006301B091640190935801809357010E94F8
:100570009B088A8380912A0190912B010FEF8F3F76
:10058000900709F074C080913C0190913D01009763
:1005900009F46DC020913C0130913D01C901880FE3
:1005A000991F820F931F880F991F880F991F820F21
:1005B000931F24E630E0B9010E942609CB019C017B
:1005C000220F331FC901880F991F880F991F280F09
:1005D000391F80914201909143012817390721F179
:1005E00020913C0130913D01C901880F991F820F74
:1005F000931F880F991F880F991F820F931F24E65E
:1006000030E0B9010E942609CB019C01220F331F63
:10061000C901880F991F880F991F820F931F90930C
:1006200043018093420123C020913C0130913D0160
:10063000C901880F991F820F931F880F991F880F78
:10064000991F820F931F24E630E0B9010E9426090A
:10065000CB019C01220F331FC901880F991F880FFE
:10066000991F820F931F90932B0180932A018091F1
:100670002A0190912B019C0140E050E080916101A2
:1006800090916201A0916301B09164018217930778
:10069000A407B50778F080914C01882359F481E0D4
:1006A00080934C01ABE2B0E0EBE2F0E0808180644B
:1006B0008C932EC080912A0190912B0144979C012C
:1006C00040E050E08091610190916201A09163014E
:1006D000B091640182179307A407B507C8F410927C
:1006E0004401109245011092460110924701109268
:1006F00048011092490110924A0110924B01109248
:100700004C01ABE2B0E0EBE2F0E080818F7B8C93B8
:100710008A81813009F0B2C020913C0130913D01C5
:10072000C901880F991F820F931F880F991F880F87
:10073000991F820F931F90934301809342018091F0
:100740002A0190912B019C01220F331FC901880FB0
:10075000991F880F991F280F391F8091420190918E
:1007600043018217930790F580912A0190912B0104
:100770009C01220F331FC901880F991F880F991FF1
:10078000280F391F8091420190914301A901481B14
:10079000590BCA018B309105C8F0809142019091AC
:1007A000430124E630E0B9010E942609CB019C01F7
:1007B000220F331FC901880F991F880F991F820FBD
:1007C000931F90932B0180932A0146C080912A01A8
:1007D00090912B019C01220F331FC901880F991F93
:1007E000880F991F280F391F809142019091430172
:1007F0002817390788F540914201509143018091B3
:100800002A0190912B019C01220F331FC901880FEF
:10081000991F880F991F820F931F7A01E81AF90A0E
:10082000C7018B309105C0F0809142019091430146
:1008300024E630E0B9010E942609CB019C01220F79
:10084000331FC901880F991F880F991F820F931FAB
:1008500090932B0180932A0180912A0190912B0182
:1008600061E00E94F50680912A0190912B010E947F
:10087000B20890933F0180933E0119C080916101BD
:1008800090916201A0916301B091640160E00E94C7
:10089000F5068091610190916201A0916301B09190
:1008A00064010E94B20890933F0180933E010F9033
:1008B0000F90CF91DF911F910F91FF90EF900895CE
:1008C0001F920F920FB60F9211248F939F93EF9365
:1008D000FF93DF93CF93CDB7DEB7E9E8F0E08091E7
:1008E0003E0190913F01892F99278083E8E8F0E04D
:1008F00080913E0190913F018083CF91DF91FF91E4
:10090000EF919F918F910F900FBE0F901F901895B0
:100910001F920F920FB60F9211242F933F934F9374
:100920005F938F939F93AF93BF93EF93FF93DF9367
:10093000CF93CDB7DEB72797DEBFCDBFE8E7F0E0B6
:100940008081882F90E09F838E83E9E7F0E08081AB
:10095000882F90E0982F88279C018E819F81820F9D
:10096000931F9F838E83AAE7B0E0EAE7F0E08081DF
:100970008F778C9380914001833010F0109240016A
:1009800080914001823009F04CC080914101882F54
:1009900090E0880F991FFC01E756FE4F8E819F81E2
:1009A00091838083ECE7F0E080E4808319821A82EF
:1009B0001B821C821D821CC08D81882F90E0880FB5
:1009C000991FFC01E756FE4F808191819C0140E018
:1009D00050E089819A81AB81BC81820F931FA41F53
:1009E000B51F89839A83AB83BC838D818F5F8D8391
:1009F0008D81883008F389819A81AB81BC816894AC
:100A000012F8B695A795979587951694D1F7909378
:100A10003D0180933C01809141018F5F80934101B2
:100A200088C080914001813009F047C08091410128
:100A3000882F90E0880F991FFC01E559FE4F8E81A9
:100A40009F8191838083ECE7F0E082E480831982C8
:100A50001A821B821C821D821CC08D81882F90E00F
:100A6000880F991FFC01E559FE4F808191819C01FF
:100A700040E050E089819A81AB81BC81820F931F55
:100A8000A41FB51F89839A83AB83BC838D818F5F3D
:100A90008D838D81883008F389819A81AB81BC81F7
:100AA000689412F8B695A795979587951694D1F7FF
:100AB00090933B0180933A013CC080914101882F83
:100AC00090E0880F991FFC01E158FE4F8E819F81B5
:100AD00091838083ECE7F0E081E4808319821A82BD
:100AE0001B821C821D821CC08D81882F90E0880F84
:100AF000991FFC01E158FE4F808191819C0140E0EB
:100B000050E089819A81AB81BC81820F931FA41F21
:100B1000B51F89839A83AB83BC838D818F5F8D835F
:100B20008D81883008F38E819F8190933901809365
:100B30003801EAE7F0E08FEE8083809140018F5F1B
:100B40008093400180914101883010F01092410162
:100B50002796DEBFCDBFCF91DF91FF91EF91BF917F
:100B6000AF919F918F915F914F913F912F910F90F6
:100B70000FBE0F901F901895DF93CF9300D0CDB785
:100B8000DEB70E94FC058FE791E060E070E040E195
:100B900050E00E945C098BE691E060E070E040E18B
:100BA00050E00E945C0989E991E060E070E040E17A
:100BB00050E00E945C09E9E8F0E081E08083E8E829
:100BC000F0E08FEF8083E4EBF0E08FEF8083109212
:100BD0004C01F8940E94630078941A82198205C02F
:100BE00089819A8101969A83898389819A812EE4E9
:100BF00080329207A8F3EDCFDF93CF93CDB7DEB766
:100C0000E1E6F0E080E88083E1E6F0E01082E5E2F2
:100C1000F0E01082E4E2F0E082E08083E8E2F0E0DD
:100C20001082E7E2F0E01082EBE2F0E01082EAE20C
:100C3000F0E08FED8083E4E4F0E01082E5E4F0E0A2
:100C400082E08083E6E4F0E01082E7E4F0E01082E6
:100C5000E8E4F0E01082E0E8F0E083E88083E1E897
:100C6000F0E089E08083E5E8F0E01082E4E8F0E07D
:100C70001082E7E8F0E01082E6E8F0E01082E9E8B0
:100C8000F0E01082E8E8F0E081E08083EBE8F0E05B
:100C90001082EAE8F0E01082E6EBF0E01082E0EB90
:100CA000F0E083E28083E1EBF0E083E08083E2EB3D
:100CB000F0E01082E3EBF0E01082E4EBF0E081E0A2
:100CC0008083E9E6F0E01082EDE3F0E01082E8E6F0
:100CD000F0E01082EEE6F0E081E08083EFE6F0E005
:100CE00081E08083E0E7F0E01082E0E5F0E080E87A
:100CF0008083EBE7F0E01082ECE7F0E080E48083B3
:100D0000EAE7F0E08FEE80830E94BB06CF91DF918F
:100D10000895DF93CF9300D00F92CDB7DEB78A83CB
:100D200019828A81882F90E08F7090708A309105A7
:100D300014F01B8219C08A81882F90E0FC01E25DCB
:100D4000FE4F808189838A81882314F480E489831B
:100D50008A81882F90E080749070009719F08981C3
:100D60008068898389818B838B810F900F900F908E
:100D7000CF91DF910895DF93CF93CDB7DEB7A5E292
:100D8000B0E0E5E2F0E0808184608C93A4E2B0E022
:100D9000E4E2F0E080818C628C93ECE4F0E080E5AA
:100DA0008083CF91DF910895DF93CF930F92CDB7DA
:100DB000DEB78983A5E2B0E0E5E2F0E080818B7FD9
:100DC0008C93EEE4F0E089818083EDE4F0E08081B3
:100DD0008823DCF7A5E2B0E0E5E2F0E08081846002
:100DE0008C930F90CF91DF910895DF93CF9300D034
:100DF00000D000D0CDB7DEB79A8389836B83898119
:100E00009A8127E28031920720F08FE097E29A835F
:100E10008983809155018A30F8F489819A819C01F7
:100E200040E050E080914D0190914E01A0914F0122
:100E3000B0915001820F931FA41FB51F80934D01E5
:100E400090934E01A0934F01B093500180915501B2
:100E50008F5F8093550161C080914D0190914E014B
:100E6000A0914F01B09150012AE030E040E050E005
:100E7000BC01CD010E943A09DA01C90190935201E7
:100E8000809351012091530130915401809151017F
:100E90009091520182179307B0F480915301909181
:100EA00054012091510130915201821B930B8430E7
:100EB000910548F080915101909152019093540115
:100EC0008093530120C020915301309154018091AF
:100ED00051019091520128173907A8F480915101CE
:100EE000909152012091530130915401821B930B38
:100EF0008430910540F0809151019091520190937E
:100F000054018093530110924D0110924E011092A2
:100F10004F0110925001109255018B81882339F0B6
:100F200089819A81909352018093510108C08091E8
:100F300053019091540190935201809351018091FB
:100F40005101909152012AE030E0B9010E94260936
:100F50008093A90120915101309152018091A90102
:100F6000992787FD9095A901481B590BCA019093B9
:100F700052018093510180915101909152012AE0D8
:100F800030E0B9010E942609CB0190935201809371
:100F9000510180915101909152012AE030E0B90154
:100FA0000E9426098093AA0120915101309152019B
:100FB0008091AA01992787FD9095A901481B590B9B
:100FC000CA019093520180935101809151019091F7
:100FD00052012AE030E0B9010E942609CB0190932A
:100FE00052018093510180915101909152012AE068
:100FF00030E0B9010E9426098093AB012091510194
:10100000309152018091AB01992787FD9095A901FC
:10101000481B590BCA019093520180935101809152
:101020005101909152012AE030E0B9010E94260955
:10103000CB01909352018093510180915101909185
:1010400052012AE030E0B9010E9426098093AC01E8
:101050008091A9010E9489068093A9018091AA012B
:10106000882341F48091AB01882321F48091AC0165
:10107000882331F08091AA010E9489068E8301C0E5
:101080001E825E815093AA018091AB01882321F4D6
:101090008091AC01882331F08091AB010E948906D8
:1010A0008D8301C01D828D818093AB018091AC0145
:1010B000882331F08091AC010E9489068C8301C0A5
:1010C0001C822C812093AC0180914C018823C1F0BB
:1010D000809156018A3040F41092A9011092AA0121
:1010E0001092AB011092AC01809156018F5F8093FA
:1010F000560180915601843128F01092560102C0A9
:10110000109256018091A9010E94D4068091AA01F3
:101110000E94D4068091AB010E94D4068091AC015C
:101120000E94D40626960FB6F894DEBF0FBECDBF40
:10113000CF91DF910895DF93CF930F92CDB7DEB7B4
:10114000E9E2F0E08081882F90E080729070009753
:1011500011F0198202C081E0898389810F90CF91BB
:10116000DF910895DF93CF9300D000D000D0CDB7AA
:10117000DEB79E838D838D819E81CC01A0E0B0E09F
:1011800089839A83AB83BC8389819A81AB81BC813B
:1011900020E137E240E050E0BC01CD010E940709A8
:1011A000DC01CB0189839A83AB83BC8389819A81DB
:1011B000AB81BC812AE532E340E050E0BC01CD01C7
:1011C0000E943A09DA01C90189839A83AB83BC83FF
:1011D00089819A81AB81BC81803024E0920720E034
:1011E000A20720E0B20740F08FEF93E0A0E0B0E06C
:1011F00089839A83AB83BC8389819A8126960FB6B3
:10120000F894DEBF0FBECDBFCF91DF910895629FEE
:10121000D001739FF001829FE00DF11D649FE00DEE
:10122000F11D929FF00D839FF00D749FF00D659F4F
:10123000F00D9927729FB00DE11DF91F639FB00D4E
:10124000E11DF91FBD01CF0111240895AA1BBB1B8D
:1012500051E107C0AA1FBB1FA617B70710F0A61BB6
:10126000B70B881F991F5A95A9F780959095BC01D7
:10127000CD010895A1E21A2EAA1BBB1BFD010DC0D2
:10128000AA1FBB1FEE1FFF1FA217B307E407F50736
:1012900020F0A21BB30BE40BF50B661F771F881F12
:1012A000991F1A9469F760957095809590959B01A8
:1012B000AC01BD01CF010895DC0101C06D93415027
:0A12C0005040E0F70895F894FFCFC6
:1012CA00000080000001800100028002000300008B
:1012DA0025244B48706C9690BBB4E1D80000E4001A
:1012EA00C2019C027C036B046905FFFF32003F06C2
:0812FA005B4F666D7D077F6FFD
:00000001FF
